:0400000081310A2917
:10000800803120007F08F8009301920191010B1CB8
:1000180004292700961DE12820008D1D1628F901C6
:10002800FA01E1280130F0000030F1004D08F40039
:10003800F5014C08F600F701F60EF70EF030F7055B
:1000480076080F39F704F030F60574087604F200E4
:1000580075087704F3008A31952280310230F00068
:100068000030F10020004B08F400F5014A08F600C2
:10007800F701F60EF70EF030F70576080F39F7049A
:10008800F030F60574087604F20075087704F3007A
:100098008A31952280310330F0000030F1002000D1
:1000A8004908F400F5014808F600F701F60EF70EC6
:1000B800F030F70576080F39F704F030F6057408C4
:1000C8007604F20075087704F3008A3195228031AE
:1000D8000430F0000030F10020004708F400F5017A
:1000E8004608F600F701F60EF70EF030F705760829
:1000F8000F39F704F030F60574087604F200750835
:100108007704F3008A31952280310530F000003001
:10011800F10020004508F400F5014408F600F70155
:10012800F60EF70EF030F70576080F39F704F030C1
:10013800F60574087604F20075087704F3008A312E
:10014800952280312000CF1CAF280630F000003007
:10015800F1004630CF280630F0000030F1000030C2
:10016800F200F3008A319522803120004F1DC72804
:100178000630F0000030F1006330F2000030F30088
:100188008A319522803120004F1CD5280630F00096
:100198000030F1006D30F2000030F3008A31952212
:1001A80080312000CF1DDD282F00121ED828AB1665
:1001B800E1282F00121EDD28AB122700161D042986
:1001C8007A08803AF40080307402031DED280C3060
:1001D800790203180029003020000F1908308F1801
:1001E80004388E1802380E180138F4007908443E95
:1001F80086008701740881000130F9070030FA3D54
:100208002700960178082000FF00090081310C2999
:10021800F901FA01FB01FC0144308400003085003B
:100228000E308731DC2720008631AE2E2100B60142
:10023800B701AE01AF01B001B101B401B501B2011E
:10024800B301B801B901BC01BD01BA01BB01A601E6
:10025800A701A201A301AC01AD01A401A501A80158
:10026800A901AA01AB01A001A1012000C01F4129D9
:1002780001302100A0000030A1007F30200040059F
:10028800C00000304105C1004F2B01302100A800FB
:100298000030A9002908AD002808AC002D08B900D5
:1002A8002C08DB2A01302100B0000030B1000C2AF4
:1002B80001302100B4000030B5003508B30034081F
:1002C800B2003308BB003208BA003B08BD003A0848
:1002D800BC003D08AF003C08EB2A01302100BA0001
:1002E8000030BB003B08BD003A08BC003D08B50023
:1002F8003C08E32A01302100BA000030BB003B086B
:10030800BD003A08BC003D08B9003C08B8003908EF
:10031800B10038080B2A652A01302100BA000030E4
:10032800BB003B08BD003A08BC003D08B9003C08CA
:10033800B8003908B3003808B2003308B5003208ED
:10034800752A01302100B0000030B100E82A0130E0
:100358002100BA000030BB00D42A01302100BA00C5
:100368000030BB003B08BD003A08BC003D08B9009E
:100378003C08B8003908B5003808E32A01302100E4
:10038800BA000030BB003B08BD003A08BC003D087D
:10039800B9003C08B8003908B3003808B20033087F
:1003A800B1003208E72A01302100BA000030BB0052
:1003B8003B08BD003A08BC003D08B9003C08B8003D
:1003C8003908B3003808B2003308B5003208B40061
:1003D8003508B1003408B000932E01302100B80070
:1003E8000030B9001D2A01302100BA000030BB00DE
:1003F8003B08BD003A08BC003D08B3003C08B20009
:100408003308B5003208B4003508B1003408B0002C
:100418003108AF003008B12A01302100BA0000309D
:10042800BB003B08BD003A08BC003D08B9003C08C9
:10043800B8003908B3003808B2003308B5003208EC
:100448008A2A01302100BA000030BB003B08BD00F9
:100458003A08BC003D08B9003C08B8003908B300A8
:100468003808B2003308B7003208EF2A01302100FB
:10047800AA000030AB002B08AD002A08AC002D08FC
:10048800BD002C08BC003D08B9003C08B80039087C
:10049800B3003808B200932E01302100BA000030B2
:1004A800BB003B08BD003A08BC003D08B9003C0849
:1004B800B8003908B3003808B2003308AF00320872
:1004C800EB2A01302100BA000030BB003B08BD0018
:1004D8003A08BC003D08B9003C08B8003908B50026
:1004E8003808B4003508B1003408B0003108B70046
:1004F8003008EF2A01302100A8000030A90029089F
:10050800AD002808AC002D08B5002C08B40035084B
:10051800B7003408EF2A01302100BA000030BB00D0
:100528003B08BD003A08BC003D08B3003C08B200D7
:100538003308B5003208B400932E01302100AC0016
:100548000030AD002D08A7002C08A6002708B90028
:100558002608B8003908AF003808AE00932E0130DD
:100568002100A0000030A1002108AB002008AA004B
:100578002B08A9002A08A8002908A5002808A40013
:100588002508AD002408AC002D08A3002C08A20003
:100598002308A7002208A6002708BB002608BA00DF
:1005A8003B08BD003A08BC003D08B9003C08B8004B
:1005B8003908B3003808B2003308B5003208B4006F
:1005C8003508B1003408B0003108AF003008AE007B
:1005D8002F08B7002E08B600932E01302100AA007C
:1005E8000030AB002B08A5002A08A4002508A900A4
:1005F8002408A8002908AB002808AA002B08AD0089
:100608002A08AC002D08A3002C08A2002308A70084
:100618002208A6002708BB002608BA004A2B401F5C
:100628001A2B01302100B6000030B7002000C01E90
:10063800222B01302100AE000030AF002000401E08
:100648002A2B01302100B0000030B1002000C01D6D
:10065800322B01302100B4000030B5002000401DCD
:100668003A2B01302100B2000030B3002000C01C3A
:10067800422B01302100B8000030B9002000401C96
:10068800932E01302100BA000030BB003B08BD00AA
:100698003A08BC00932E20004108003A0319552B54
:1006A800132B4008003A0319932E103A0319502AC5
:1006B800303A0319932E103A03194929013A0319BC
:1006C8005629033A03195C29013A03197129073A93
:1006D80003197E29013A03198F29033A031990292E
:1006E800013A0319A5290F3A0319AB29013A03194D
:1006F800B129033A0319C229013A0319D729073A3C
:100708000319F129013A0319F729033A0319102AA1
:10071800013A0319252A7F3A0319F12A013A0319E4
:10072800C229033A0319D729013A0319F129073ACB
:100738000319F729013A0319102A033A0319252A3C
:100748000D3A03193A2A1B3A0319502A033A031996
:10075800652A093A03197E2A393A03198F2A0E3A6B
:100768000319A12A123A0319B32A132B932E2F0027
:10077800121EBB2B2100361CC42B2F00A514C62B20
:100788002F00A51021002E1CCC2B2F00A214CE2B3D
:100798002F00A2102100301CD42B2F002415D62B9B
:1007A8002F0024112100341CDC2B2F00A414DE2B75
:1007B8002F00A4102100321CE42B2F00A114E62BDB
:1007C8002F00A1102100381CEC2B2F002414EE2B35
:1007D8002F00241021003C1CF42B2F002114F62B91
:1007E8002F0021102100261CFC2B2F002A14FE2B81
:1007F8002F002A102100221C042C2F00AB14062CD9
:100808002F00AB1021002C1C0C2C2F00A8140E2C30
:100818002F00A81021003A1C142C2F002115162C8B
:100828002F0021112100241C1C2C2F00A7141E2C82
:100838002F00A7102100281C242C2F002714262C59
:100848002F00271021002A1C2C2C2F00AA142E2C34
:100858002F00AA102100201C342C2F002A15080074
:100868002F002A1108002F00121E372C2100361CD9
:10087800402C2F00A515422C2F00A51121002E1C5D
:10088800482C2F00A2154A2C2F00A2112100301C41
:10089800502C2F002514522C2F0025102100341C19
:1008A800582C2F00A4155A2C2F00A4112100321CFB
:1008B800602C2F00A115622C2F00A1112100381CDB
:1008C800682C2F0025156A2C2F00251121003C1CAF
:1008D800702C2F002215722C2F0022112100261CAB
:1008E800782C2F002B157A2C2F002B112100221C7D
:1008F800802C2F00AB15822C2F00AB1121002C1C53
:10090800882C2F00A8158A2C2F00A81121003A1C2A
:10091800902C2F002214922C2F0022102100241C2E
:10092800982C2F00A7159A2C2F00A7112100281CFE
:10093800A02C2F002815A22C2F00281121002A1CDA
:10094800A82C2F00AA15AA2C2F00AA112100201CC0
:10095800B02C2F002B1408002F002B1008002F009C
:10096800121EB32C2100361CBC2C2F002314BE2CC5
:100978002F00231021002E1CC42C2F002014C62C5D
:100988002F0020102100301CCC2C2F00A315CE2CBA
:100998002F00A3112100341CD42C2F002317D62C90
:1009A8002F0023132100321CDC2C2F002017DE2CF3
:1009B8002F0020132100381CE42C2F002516E62CCC
:1009C8002F00251221003C1CEC2C2F002216EE2CA7
:1009D8002F0022122100261CF42C2F002B16F62C97
:1009E8002F002B122100221CFC2C2F002914FE2C76
:1009F8002F00291021002C1C042D2F002614062D51
:100A08002F00261021003A1C0C2D2F00A0150E2DAA
:100A18002F00A0112100241C142D2F002617162D9D
:100A28002F0026132100281C1C2D2F0028161E2DF0
:100A38002F00281221002A1C242D2F002917262DCB
:100A48002F0029132100201C2C2D2F00A915080088
:100A58002F00A91108002F00121E2F2D2100361C6F
:100A6800382D2F0024163A2D2F00241221002E1C79
:100A7800402D2F002116422D2F0021122100301C5D
:100A8800482D2F0023154A2D2F0023112100341C37
:100A9800502D2F00A314522D2F00A3102100321C1B
:100AA800582D2F00A0145A2D2F00A0102100381CFB
:100AB800602D2F00A417622D2F00A41321003C1CC9
:100AC800682D2F00A1176A2D2F00A1132100261CC5
:100AD800702D2F00AA17722D2F00AA132100221C97
:100AE800782D2F002A167A2D2F002A1221002C1C6F
:100AF800802D2F002716822D2F00271221003A1C47
:100B0800882D2F0020158A2D2F0020112100241C4C
:100B1800902D2F00A614922D2F00A6102100281C1E
:100B2800982D2F00A7179A2D2F00A71321002A1CF4
:100B3800A02D2F00A914A22D2F00A9102100201CE0
:100B4800A82D2F00291508002F00291108002F00B3
:100B5800121EAB2D2100361CB42D2F002316B62DE6
:100B68002F00231221002E1CBC2D2F002016BE2D75
:100B78002F0020122100301CC42D2F002517C62D50
:100B88002F0025132100341CCC2D2F00A517CE2DA6
:100B98002F00A5132100321CD42D2F00A217D62D0B
:100BA8002F00A2132100381CDC2D2F00A317DE2DE7
:100BB8002F00A31321003C1CE42D2F00A017E62DC5
:100BC8002F00A0132100261CEC2D2F00A917EE2DB5
:100BD8002F00A9132100221CF42D2F002916F62D11
:100BE8002F00291221002C1CFC2D2F002616FE2D6B
:100BF8002F00261221003A1C042E2F002217062E41
:100C08002F0022132100241C0C2E2F00A8170E2EB3
:100C18002F00A8132100281C142E2F00A617162E0B
:100C28002F00A61321002A1C1C2E2F00AB1708002A
:100C38002F00AB1308002F00121E1F2E2100361C98
:100C4800282E2F00A4162A2E2F00A41221002E1CB5
:100C5800302E2F00A116322E2F00A1122100301C99
:100C6800382E2F00A5163A2E2F00A5122100341C6D
:100C7800402E2F002417422E2F0024132100321C4F
:100C8800482E2F0021174A2E2F0021132100381C2F
:100C9800502E2F00A316522E2F00A31221003C1C09
:100CA800582E2F00A0165A2E2F00A0122100261C05
:100CB800602E2F00A916622E2F00A9122100221CD7
:100CC800682E2F00AA166A2E2F00AA1221002C1CAB
:100CD800702E2F00A716722E2F00A71221003A1C83
:100CE800782E2F00A2167A2E2F00A2122100241C83
:100CF800802E2F002717822E2F0027132100281C53
:100D0800882E2F00A6168A2E2F00A61221002A1C34
:100D1800902E2F002A1708002F002A130800200001
:100D28003F08003A0319992EAD2E3E08013A0319DF
:100D3800BB2B033A0319372C013A0319B32C073A92
:100D480003192F2D013A0319AB2D033A03191F2E4E
:100D5800AD2E08002100CA01CB0120008E018F01B1
:100D68009001FF3021008C00FF308D00FF308E0095
:100D7800FF308F00FF30900023008C018D018F0120
:100D880090018B01210093019201910112150B171B
:100D98008B13F03099000D158D15270015151411BA
:100DA8009515941521008D1020008D1021009015A7
:100DB800240090158731B927863101302000BE0004
:100DC8000030BF005A30C0000030C10081311A2104
:100DD800863102302000BE000030BF005330C00012
:100DE8000030C10081311A21863103302000BE0055
:100DF8000030BF003130C0000030C10081311A21FD
:100E0800863104302000BE000030BF004B30C000E7
:100E18000030C10081311A21863105302000BE0022
:100E28000030BF004530C0000030C10081311A21B8
:100E380086317C2F01302100CC070030CD3D0030B9
:100E4800CE3D0030CF3DCF1B1E2F4F08031D342F42
:100E580021304C02A1304D3B07304E3B031C1E2F66
:100E68004A092000C20021004B092000C300C20A21
:100E78000319C30A4208013E2100CA0000302000BD
:100E8800433D2100CB002F00121E472F21004A08A6
:100E98004B0403195E2FFF302F00AB00AA00A900F6
:100EA800A800A700A600A500A400A300A200A10016
:100EB800A0006B2F2F00AB01AA01A901A801A7016F
:100EC800A601A501A401A301A201A101A00100306E
:100ED8002100CF000030CE000030CD000030CC0023
:100EE8004A1C792F20008D141E2F20008D101E2FD4
:100EF8008B158B1701302100CC070030CD3D003019
:100F0800CE3D0030CF3DCF1B7E2F4F08031D952FC0
:100F18004E08031D952F51304C02C3304D3B031C26
:100F28007E2F4A092000C20021004B092000C3007F
:100F3800C20A0319C30A4208013E2100CA00003050
:100F48002000433D2100CB004A1CAD2F20008D140A
:100F5800AF2F20008D1000302100CF000030CE00D0
:100F68000030CD000030CC007E2FA0302F00920042
:100F7800FF309800FF309900FF309A000B30910045
:100F8800A001A101A201A301A401A501A601A70135
:100F9800A801A901AA01AB01210012112000121118
:100FA80030302F009500803093009401911708008D
:0C0FB800640080010131890BDD2F003442
:10152A002000B601B701AE01AF01B001B101B401AB
:10153A00B501B201B301B801B901BC01BD01BA01DB
:10154A00BB01A601A701A201A301AC01AD01A4013F
:10155A00A501A801A901AA01AB01A001A101F21FDD
:10156A00BA2A0130A0000030A1007F307205F200D3
:10157A0000307305F300A32C0130A8000030A90045
:10158A002908AD002808AC002D08B9002C083D2C0C
:10159A000130B0000030B100772B0130B4000030C8
:1015AA00B5003508B3003408B2003308BB0032086E
:1015BA00BA003B08BD003A08BC003D08AF003C0831
:1015CA004D2C0130BA000030BB003B08BD003A0880
:1015DA00BC003D08B5003C08452C0130BA0000307B
:1015EA00BB003B08BD003A08BC003D08B9003C08F6
:1015FA00B8003908B1003808762BCC2B0130BA0074
:10160A000030BB003B08BD003A08BC003D08B900E9
:10161A003C08B8003908B3003808B2003308B500EE
:10162A003208DB2B0130B0000030B1004A2C013007
:10163A00BA000030BB00362C0130BA000030BB00C3
:10164A003B08BD003A08BC003D08B9003C08B80098
:10165A003908B5003808452C0130BA000030BB0003
:10166A003B08BD003A08BC003D08B9003C08B80078
:10167A003908B3003808B2003308B1003208492CDF
:10168A000130BA000030BB003B08BD003A08BC007C
:10169A003D08B9003C08B8003908B3003808B20060
:1016AA003308B5003208B4003508B1003408B00078
:1016BA00E62F0130B8000030B900872B0130BA009C
:1016CA000030BB003B08BD003A08BC003D08B3002F
:1016DA003C08B2003308B5003208B4003508B1003E
:1016EA003408B0003108AF003008142C0130BA00B9
:1016FA000030BB003B08BD003A08BC003D08B900F9
:10170A003C08B8003908B3003808B2003308B500FD
:10171A003208EF2B0130BA000030BB003B08BD0095
:10172A003A08BC003D08B9003C08B8003908B300C3
:10173A003808B2003308B7003208512C0130AA0029
:10174A000030AB002B08AD002A08AC002D08BD0004
:10175A002C08BC003D08B9003C08B8003908B300A1
:10176A003808B200E62F0130BA000030BB003B084F
:10177A00BD003A08BC003D08B9003C08B800390869
:10178A00B3003808B2003308AF0032084D2C0130DC
:10179A00BA000030BB003B08BD003A08BC003D0857
:1017AA00B9003C08B8003908B5003808B400350853
:1017BA00B1003408B0003108B7003008512C0130AC
:1017CA00A8000030A9002908AD002808AC002D089F
:1017DA00B5002C08B4003508B7003408512C013084
:1017EA00BA000030BB003B08BD003A08BC003D0807
:1017FA00B3003C08B2003308B5003208B400E62F43
:10180A000130AC000030AD002D08A7002C08A6005E
:10181A002708B9002608B8003908AF003808AE0012
:10182A00E62F0130A0000030A1002108AB002008FB
:10183A00AA002B08A9002A08A8002908A500280838
:10184A00A4002508AD002408AC002D08A3002C082C
:10185A00A2002308A7002208A6002708BB00260822
:10186A00BA003B08BD003A08BC003D08B9003C0874
:10187A00B8003908B3003808B2003308B500320896
:10188A00B4003508B1003408B0003108AF003008A0
:10189A00AE002F08B7002E08B600E62F0130AA00C6
:1018AA000030AB002B08A5002A08A4002508A900CF
:1018BA002408A8002908AB002808AA002B08AD00B4
:1018CA002A08AC002D08A3002C08A2002308A700B0
:1018DA002208A6002708BB002608BA009E2C721F01
:1018EA007A2C0130B6000030B700F21E802C01308D
:1018FA00AE000030AF00721E862C0130B0000030FE
:10190A00B100F21D8C2C0130B4000030B500721DFC
:10191A00922C0130B2000030B300F21C982C013036
:10192A00B8000030B900721CE62F0130BA0000304E
:10193A00BB003B08BD003A08BC00E62F7308003A1A
:10194A000319A82C742C7208003A0319E62F103ACE
:10195A000319B82B303A0319E62F103A0319C12A92
:10196A00013A0319CD2A033A0319D22A013A031973
:10197A00E62A073A0319F22A013A0319022B033A13
:10198A000319032B013A0319172B0F3A03191C2BBE
:10199A00013A0319212B033A0319312B013A03198E
:1019AA00452B073A03195E2B013A0319632B033AB5
:1019BA0003197B2B013A03198F2B7F3A0319532CF6
:1019CA00013A0319312B033A0319452B013A03193A
:1019DA005E2B073A0319632B013A03197B2B033A4F
:1019EA0003198F2B0D3A0319A32B1B3A0319B82B92
:1019FA00033A0319CC2B093A0319E42B393A031990
:101A0A00F42B0E3A0319052C123A0319162C742CCE
:101A1A00E62F2F00121E0E2D2000361C172D2F0028
:101A2A00A514192D2F00A51020002E1C1F2D2F00E4
:101A3A00A214212D2F00A2102000301C272D2F00C8
:101A4A002415292D2F0024112000341C2F2D2F009E
:101A5A00A414312D2F00A4102000321C372D2F0082
:101A6A00A114392D2F00A1102000381C3F2D2F0062
:101A7A002414412D2F00241020003C1C472D2F0038
:101A8A002114492D2F0021102000261C4F2D2F0034
:101A9A002A14512D2F002A102000221C572D2F0006
:101AAA00AB14592D2F00AB1020002C1C5F2D2F00DA
:101ABA00A814612D2F00A81020003A1C672D2F00B2
:101ACA002115692D2F0021112000241C6F2D2F00B4
:101ADA00A714712D2F00A7102000281C772D2F0086
:101AEA002714792D2F00271020002A1C7F2D2F0064
:101AFA00AA14812D2F00AA102000201C872D2F0048
:101B0A002A1508002F002A1108002F00121E8A2DFC
:101B1A002000361C932D2F00A515952D2F00A511F9
:101B2A0020002E1C9B2D2F00A2159D2D2F00A211E7
:101B3A002000301CA32D2F002514A52D2F002510C1
:101B4A002000341CAB2D2F00A415AD2D2F00A4119D
:101B5A002000321CB32D2F00A115B52D2F00A11185
:101B6A002000381CBB2D2F002515BD2D2F00251157
:101B7A0020003C1CC32D2F002215C52D2F00221139
:101B8A002000261CCB2D2F002B15CD2D2F002B111D
:101B9A002000221CD32D2F00AB15D52D2F00AB1101
:101BAA0020002C1CDB2D2F00A815DD2D2F00A811DD
:101BBA0020003A1CE32D2F002214E52D2F002210BD
:101BCA002000241CEB2D2F00A715ED2D2F00A711A7
:101BDA002000281CF32D2F002815F52D2F00281181
:101BEA0020002A1CFB2D2F00AA15FD2D2F00AA115B
:101BFA002000201C032E2F002B1408002F002B106E
:101C0A0008002F00121E062E2000361C0F2E2F0051
:101C1A002314112E2F00231020002E1C172E2F0004
:101C2A002014192E2F0020102000301C1F2E2F00E8
:101C3A00A315212E2F00A3112000341C272E2F00BC
:101C4A002317292E2F0023132000321C2F2E2F009A
:101C5A002017312E2F0020132000381C372E2F007A
:101C6A002516392E2F00251220003C1C3F2E2F004E
:101C7A002216412E2F0022122000261C472E2F004A
:101C8A002B16492E2F002B122000221C4F2E2F001C
:101C9A002914512E2F00291020002C1C572E2F00FA
:101CAA002614592E2F00261020003A1C5F2E2F00D2
:101CBA00A015612E2F00A0112000241C672E2F00D2
:101CCA002617692E2F0026132000281C6F2E2F009E
:101CDA002816712E2F00281220002A1C772E2F007A
:101CEA002917792E2F0029132000201C7F2E2F0060
:101CFA00A91508002F00A91108002F00121E822E14
:101D0A002000361C8B2E2F0024168D2E2F00241215
:101D1A0020002E1C932E2F002116952E2F00211203
:101D2A002000301C9B2E2F0023159D2E2F002311DF
:101D3A002000341CA32E2F00A314A52E2F00A310BD
:101D4A002000321CAB2E2F00A014AD2E2F00A010A5
:101D5A002000381CB32E2F00A417B52E2F00A41371
:101D6A0020003C1CBB2E2F00A117BD2E2F00A11353
:101D7A002000261CC32E2F00AA17C52E2F00AA1337
:101D8A002000221CCB2E2F002A16CD2E2F002A121D
:101D9A0020002C1CD32E2F002716D52E2F002712F9
:101DAA0020003A1CDB2E2F002015DD2E2F002011DB
:101DBA002000241CE32E2F00A614E52E2F00A610C7
:101DCA002000281CEB2E2F00A717ED2E2F00A7139B
:101DDA0020002A1CF32E2F00A914F52E2F00A9107B
:101DEA002000201CFB2E2F00291508002F00291186
:101DFA0008002F00121EFE2E2000361C072F2F006F
:101E0A002316092F2F00231220002E1C0F2F2F001C
:101E1A002016112F2F0020122000301C172F2F0000
:101E2A002517192F2F0025132000341C1F2F2F00D0
:101E3A00A517212F2F00A5132000321C272F2F00B2
:101E4A00A217292F2F00A2132000381C2F2F2F0092
:101E5A00A317312F2F00A31320003C1C372F2F006C
:101E6A00A017392F2F00A0132000261C3F2F2F0068
:101E7A00A917412F2F00A9132000221C472F2F003A
:101E8A002916492F2F00291220002C1C4F2F2F0012
:101E9A002616512F2F00261220003A1C572F2F00EA
:101EAA002217592F2F0022132000241C5F2F2F00E6
:101EBA00A817612F2F00A8132000281C672F2F00B6
:101ECA00A617692F2F00A61320002A1C6F2F2F0098
:101EDA00AB1708002F00AB1308002F00121E722F39
:101EEA002000361C7B2F2F00A4167D2F2F00A41252
:101EFA0020002E1C832F2F00A116852F2F00A11240
:101F0A002000301C8B2F2F00A5168D2F2F00A51215
:101F1A002000341C932F2F002417952F2F002413F1
:101F2A002000321C9B2F2F0021179D2F2F002113D9
:101F3A002000381CA32F2F00A316A52F2F00A312B1
:101F4A0020003C1CAB2F2F00A016AD2F2F00A01293
:101F5A002000261CB32F2F00A916B52F2F00A91277
:101F6A002000221CBB2F2F00AA16BD2F2F00AA1259
:101F7A0020002C1CC32F2F00A716C52F2F00A71235
:101F8A0020003A1CCB2F2F00A216CD2F2F00A21211
:101F9A002000241CD32F2F002717D52F2F002713FB
:101FAA002000281CDB2F2F00A616DD2F2F00A612DB
:101FBA0020002A1CE32F2F002A1708002F002A13BB
:101FCA0008007108003A0319EB2FFF2F7008013A35
:101FDA0003190E2D033A03198A2D013A0319062E05
:101FEA00073A0319822E013A0319FE2E033A0319FE
:061FFA00722FFF2F08000A
:020000040001F9
:04000E00A4EFFFFF5D
:00000001FF
